:02000000512885
:100006008316031386010130831286000130F20045
:100016000030F3008030F000803073067002031D5C
:1000260016287208073C031C2C280608F000F00D61
:100036007010700886008230FC00DD30FD00FD0B7C
:100046002228FC0B222800000000F20A0319F30AFA
:100056000D280730F2000030F30080307306F00000
:1000660080307002031D392801307202031C5028AB
:100076000608F000F00CF013700886008230FC00D1
:10008600DD30FD00FD0B4528FC0B45280000000077
:0C0096000130F202031CF30330280800C4
:1000A2000730831203139F00FF308316850003205D
:0400B20058285A2848
:00000001FF
